{
  "contractName": "Election",
  "abi": [
    {
      "constant": true,
      "inputs": [],
      "name": "candidatesCount",
      "outputs": [
        {
          "name": "",
          "type": "uint256"
        }
      ],
      "payable": false,
      "stateMutability": "view",
      "type": "function"
    },
    {
      "constant": true,
      "inputs": [
        {
          "name": "",
          "type": "uint256"
        }
      ],
      "name": "candidates",
      "outputs": [
        {
          "name": "id",
          "type": "uint256"
        },
        {
          "name": "name",
          "type": "string"
        },
        {
          "name": "voteCount",
          "type": "uint256"
        }
      ],
      "payable": false,
      "stateMutability": "view",
      "type": "function"
    },
    {
      "inputs": [],
      "payable": false,
      "stateMutability": "nonpayable",
      "type": "constructor"
    },
    {
      "constant": false,
      "inputs": [
        {
          "name": "_name",
          "type": "string"
        }
      ],
      "name": "addCandidate",
      "outputs": [],
      "payable": false,
      "stateMutability": "nonpayable",
      "type": "function"
    }
  ],
  "bytecode": "0x6060604052341561000f57600080fd5b6100606040805190810160405280600a81526020017f43616e64696461746531000000000000000000000000000000000000000000008152506100b664010000000002610254176401000000009004565b6100b16040805190810160405280600a81526020017f43616e64696461746532000000000000000000000000000000000000000000008152506100b664010000000002610254176401000000009004565b6101d7565b600160008154809291906001019190505550606060405190810160405280600154815260200182815260200160008152506000806001548152602001908152602001600020600082015181600001556020820151816001019080519060200190610121929190610132565b506040820151816002015590505050565b828054600181600116156101000203166002900490600052602060002090601f016020900481019282601f1061017357805160ff19168380011785556101a1565b828001600101855582156101a1579182015b828111156101a0578251825591602001919060010190610185565b5b5090506101ae91906101b2565b5090565b6101d491905b808211156101d05760008160009055506001016101b8565b5090565b90565b6103a1806101e66000396000f300606060405260043610610057576000357c0100000000000000000000000000000000000000000000000000000000900463ffffffff1680632d35a8a21461005c5780633477ee2e14610085578063462e91ec1461012f575b600080fd5b341561006757600080fd5b61006f61018c565b6040518082815260200191505060405180910390f35b341561009057600080fd5b6100a66004808035906020019091905050610192565b6040518084815260200180602001838152602001828103825284818151815260200191508051906020019080838360005b838110156100f25780820151818401526020810190506100d7565b50505050905090810190601f16801561011f5780820380516001836020036101000a031916815260200191505b5094505050505060405180910390f35b341561013a57600080fd5b61018a600480803590602001908201803590602001908080601f01602080910402602001604051908101604052809392919081815260200183838082843782019150505050505091905050610254565b005b60015481565b6000602052806000526040600020600091509050806000015490806001018054600181600116156101000203166002900480601f0160208091040260200160405190810160405280929190818152602001828054600181600116156101000203166002900480156102445780601f1061021957610100808354040283529160200191610244565b820191906000526020600020905b81548152906001019060200180831161022757829003601f168201915b5050505050908060020154905083565b6001600081548092919060010191905055506060604051908101604052806001548152602001828152602001600081525060008060015481526020019081526020016000206000820151816000015560208201518160010190805190602001906102bf9291906102d0565b506040820151816002015590505050565b828054600181600116156101000203166002900490600052602060002090601f016020900481019282601f1061031157805160ff191683800117855561033f565b8280016001018555821561033f579182015b8281111561033e578251825591602001919060010190610323565b5b50905061034c9190610350565b5090565b61037291905b8082111561036e576000816000905550600101610356565b5090565b905600a165627a7a723058207a5fe3ca54ae6d14574ff2786574fd7358ee5eb901e100b61cac11dad499e64f0029",
  "source": "pragma solidity ^0.4.11;\n\ncontract Election {\n    \n    struct Candidate{\n        uint id;\n        string name;\n        uint voteCount;\n    }\n\n    mapping(uint => Candidate) public candidates;\n    uint public candidatesCount;\n    \n    function Election() public {\n        addCandidate(\"Candidate1\");\n        addCandidate(\"Candidate2\");\n    }\n\n    function addCandidate(string _name){\n        candidatesCount++;\n        candidates[candidatesCount] = Candidate(candidatesCount, _name, 0);\n    }\n\n}",
  "sourcePath": "c:\\Users\\User\\election\\contracts\\Election.sol",
  "compiler": {
    "name": "solc",
    "version": "0.4.21+commit.dfe3193c.Emscripten.clang"
  },
  "schemaVersion": "2.0.0",
  "updatedAt": "2018-04-12T20:40:19.209Z"
}